{
  "_format": "hh-sol-artifact-1",
  "contractName": "NFcharT",
  "sourceName": "contracts/NFcharT.sol",
  "abi": [
    {
      "inputs": [
        {
          "internalType": "string",
          "name": "_name",
          "type": "string"
        },
        {
          "internalType": "string",
          "name": "_symbol",
          "type": "string"
        }
      ],
      "stateMutability": "nonpayable",
      "type": "constructor"
    },
    {
      "anonymous": false,
      "inputs": [
        {
          "indexed": true,
          "internalType": "address",
          "name": "owner",
          "type": "address"
        },
        {
          "indexed": true,
          "internalType": "address",
          "name": "approved",
          "type": "address"
        },
        {
          "indexed": true,
          "internalType": "uint256",
          "name": "tokenId",
          "type": "uint256"
        }
      ],
      "name": "Approval",
      "type": "event"
    },
    {
      "anonymous": false,
      "inputs": [
        {
          "indexed": true,
          "internalType": "address",
          "name": "owner",
          "type": "address"
        },
        {
          "indexed": true,
          "internalType": "address",
          "name": "operator",
          "type": "address"
        },
        {
          "indexed": false,
          "internalType": "bool",
          "name": "approved",
          "type": "bool"
        }
      ],
      "name": "ApprovalForAll",
      "type": "event"
    },
    {
      "anonymous": false,
      "inputs": [
        {
          "indexed": true,
          "internalType": "address",
          "name": "previousOwner",
          "type": "address"
        },
        {
          "indexed": true,
          "internalType": "address",
          "name": "newOwner",
          "type": "address"
        }
      ],
      "name": "OwnershipTransferred",
      "type": "event"
    },
    {
      "anonymous": false,
      "inputs": [
        {
          "indexed": true,
          "internalType": "address",
          "name": "from",
          "type": "address"
        },
        {
          "indexed": true,
          "internalType": "address",
          "name": "to",
          "type": "address"
        },
        {
          "indexed": true,
          "internalType": "uint256",
          "name": "tokenId",
          "type": "uint256"
        }
      ],
      "name": "Transfer",
      "type": "event"
    },
    {
      "inputs": [
        {
          "internalType": "address",
          "name": "to",
          "type": "address"
        },
        {
          "internalType": "uint256",
          "name": "tokenId",
          "type": "uint256"
        }
      ],
      "name": "approve",
      "outputs": [],
      "stateMutability": "nonpayable",
      "type": "function"
    },
    {
      "inputs": [
        {
          "internalType": "address",
          "name": "owner",
          "type": "address"
        }
      ],
      "name": "balanceOf",
      "outputs": [
        {
          "internalType": "uint256",
          "name": "",
          "type": "uint256"
        }
      ],
      "stateMutability": "view",
      "type": "function"
    },
    {
      "inputs": [
        {
          "internalType": "uint256",
          "name": "tokenId",
          "type": "uint256"
        }
      ],
      "name": "getApproved",
      "outputs": [
        {
          "internalType": "address",
          "name": "",
          "type": "address"
        }
      ],
      "stateMutability": "view",
      "type": "function"
    },
    {
      "inputs": [
        {
          "internalType": "uint256",
          "name": "tokenId",
          "type": "uint256"
        }
      ],
      "name": "getLookbackWindow",
      "outputs": [
        {
          "internalType": "uint256",
          "name": "",
          "type": "uint256"
        }
      ],
      "stateMutability": "view",
      "type": "function"
    },
    {
      "inputs": [
        {
          "internalType": "address",
          "name": "owner",
          "type": "address"
        },
        {
          "internalType": "address",
          "name": "operator",
          "type": "address"
        }
      ],
      "name": "isApprovedForAll",
      "outputs": [
        {
          "internalType": "bool",
          "name": "",
          "type": "bool"
        }
      ],
      "stateMutability": "view",
      "type": "function"
    },
    {
      "inputs": [],
      "name": "name",
      "outputs": [
        {
          "internalType": "string",
          "name": "",
          "type": "string"
        }
      ],
      "stateMutability": "view",
      "type": "function"
    },
    {
      "inputs": [],
      "name": "owner",
      "outputs": [
        {
          "internalType": "address",
          "name": "",
          "type": "address"
        }
      ],
      "stateMutability": "view",
      "type": "function"
    },
    {
      "inputs": [
        {
          "internalType": "uint256",
          "name": "tokenId",
          "type": "uint256"
        }
      ],
      "name": "ownerOf",
      "outputs": [
        {
          "internalType": "address",
          "name": "",
          "type": "address"
        }
      ],
      "stateMutability": "view",
      "type": "function"
    },
    {
      "inputs": [
        {
          "internalType": "bool",
          "name": "val",
          "type": "bool"
        }
      ],
      "name": "pause",
      "outputs": [],
      "stateMutability": "nonpayable",
      "type": "function"
    },
    {
      "inputs": [],
      "name": "paused",
      "outputs": [
        {
          "internalType": "bool",
          "name": "",
          "type": "bool"
        }
      ],
      "stateMutability": "view",
      "type": "function"
    },
    {
      "inputs": [],
      "name": "renounceOwnership",
      "outputs": [],
      "stateMutability": "nonpayable",
      "type": "function"
    },
    {
      "inputs": [
        {
          "internalType": "address",
          "name": "token0",
          "type": "address"
        },
        {
          "internalType": "address",
          "name": "token1",
          "type": "address"
        }
      ],
      "name": "returnPairKey",
      "outputs": [
        {
          "internalType": "bytes",
          "name": "",
          "type": "bytes"
        }
      ],
      "stateMutability": "pure",
      "type": "function"
    },
    {
      "inputs": [
        {
          "internalType": "address",
          "name": "from",
          "type": "address"
        },
        {
          "internalType": "address",
          "name": "to",
          "type": "address"
        },
        {
          "internalType": "uint256",
          "name": "tokenId",
          "type": "uint256"
        }
      ],
      "name": "safeTransferFrom",
      "outputs": [],
      "stateMutability": "nonpayable",
      "type": "function"
    },
    {
      "inputs": [
        {
          "internalType": "address",
          "name": "from",
          "type": "address"
        },
        {
          "internalType": "address",
          "name": "to",
          "type": "address"
        },
        {
          "internalType": "uint256",
          "name": "tokenId",
          "type": "uint256"
        },
        {
          "internalType": "bytes",
          "name": "_data",
          "type": "bytes"
        }
      ],
      "name": "safeTransferFrom",
      "outputs": [],
      "stateMutability": "nonpayable",
      "type": "function"
    },
    {
      "inputs": [
        {
          "internalType": "address",
          "name": "operator",
          "type": "address"
        },
        {
          "internalType": "bool",
          "name": "approved",
          "type": "bool"
        }
      ],
      "name": "setApprovalForAll",
      "outputs": [],
      "stateMutability": "nonpayable",
      "type": "function"
    },
    {
      "inputs": [
        {
          "internalType": "uint256",
          "name": "tokenId",
          "type": "uint256"
        },
        {
          "internalType": "uint256",
          "name": "dayCount",
          "type": "uint256"
        }
      ],
      "name": "setLookbackWindow",
      "outputs": [],
      "stateMutability": "nonpayable",
      "type": "function"
    },
    {
      "inputs": [
        {
          "internalType": "bytes4",
          "name": "interfaceId",
          "type": "bytes4"
        }
      ],
      "name": "supportsInterface",
      "outputs": [
        {
          "internalType": "bool",
          "name": "",
          "type": "bool"
        }
      ],
      "stateMutability": "view",
      "type": "function"
    },
    {
      "inputs": [],
      "name": "symbol",
      "outputs": [
        {
          "internalType": "string",
          "name": "",
          "type": "string"
        }
      ],
      "stateMutability": "view",
      "type": "function"
    },
    {
      "inputs": [
        {
          "internalType": "uint256",
          "name": "index",
          "type": "uint256"
        }
      ],
      "name": "tokenByIndex",
      "outputs": [
        {
          "internalType": "uint256",
          "name": "",
          "type": "uint256"
        }
      ],
      "stateMutability": "view",
      "type": "function"
    },
    {
      "inputs": [
        {
          "internalType": "address",
          "name": "owner",
          "type": "address"
        },
        {
          "internalType": "uint256",
          "name": "index",
          "type": "uint256"
        }
      ],
      "name": "tokenOfOwnerByIndex",
      "outputs": [
        {
          "internalType": "uint256",
          "name": "",
          "type": "uint256"
        }
      ],
      "stateMutability": "view",
      "type": "function"
    },
    {
      "inputs": [
        {
          "internalType": "bytes",
          "name": "",
          "type": "bytes"
        }
      ],
      "name": "tokenPairExistenceMapping",
      "outputs": [
        {
          "internalType": "bool",
          "name": "",
          "type": "bool"
        }
      ],
      "stateMutability": "view",
      "type": "function"
    },
    {
      "inputs": [
        {
          "internalType": "uint256",
          "name": "tokenId",
          "type": "uint256"
        }
      ],
      "name": "tokenURI",
      "outputs": [
        {
          "internalType": "string",
          "name": "",
          "type": "string"
        }
      ],
      "stateMutability": "view",
      "type": "function"
    },
    {
      "inputs": [],
      "name": "totalSupply",
      "outputs": [
        {
          "internalType": "uint256",
          "name": "",
          "type": "uint256"
        }
      ],
      "stateMutability": "view",
      "type": "function"
    },
    {
      "inputs": [
        {
          "internalType": "address",
          "name": "from",
          "type": "address"
        },
        {
          "internalType": "address",
          "name": "to",
          "type": "address"
        },
        {
          "internalType": "uint256",
          "name": "tokenId",
          "type": "uint256"
        }
      ],
      "name": "transferFrom",
      "outputs": [],
      "stateMutability": "nonpayable",
      "type": "function"
    },
    {
      "inputs": [
        {
          "internalType": "address",
          "name": "newOwner",
          "type": "address"
        }
      ],
      "name": "transferOwnership",
      "outputs": [],
      "stateMutability": "nonpayable",
      "type": "function"
    },
    {
      "inputs": [
        {
          "internalType": "address",
          "name": "token0",
          "type": "address"
        },
        {
          "internalType": "address",
          "name": "token1",
          "type": "address"
        }
      ],
      "name": "userMint",
      "outputs": [],
      "stateMutability": "payable",
      "type": "function"
    },
    {
      "inputs": [],
      "name": "withdrawAll",
      "outputs": [],
      "stateMutability": "payable",
      "type": "function"
    }
  ],
  "bytecode": "0x6080604052600c805460ff19166001179055610e10600d553480156200002457600080fd5b50604051620028ca380380620028ca83398101604081905262000047916200024f565b81518290829062000060906000906020850190620000f6565b50805162000076906001906020840190620000f6565b505050620000936200008d620000a060201b60201c565b620000a4565b50506001600b5562000309565b3390565b600a80546001600160a01b038381166001600160a01b0319831681179093556040519116919082907f8be0079c531659141344cd1fd0a4f28419497f9722a3daafe3b4186f6b6457e090600090a35050565b8280546200010490620002b6565b90600052602060002090601f01602090048101928262000128576000855562000173565b82601f106200014357805160ff191683800117855562000173565b8280016001018555821562000173579182015b828111156200017357825182559160200191906001019062000156565b506200018192915062000185565b5090565b5b8082111562000181576000815560010162000186565b600082601f830112620001ad578081fd5b81516001600160401b0380821115620001ca57620001ca620002f3565b604051601f8301601f19908116603f01168101908282118183101715620001f557620001f5620002f3565b8160405283815260209250868385880101111562000211578485fd5b8491505b8382101562000234578582018301518183018401529082019062000215565b838211156200024557848385830101525b9695505050505050565b6000806040838503121562000262578182fd5b82516001600160401b038082111562000279578384fd5b62000287868387016200019c565b935060208501519150808211156200029d578283fd5b50620002ac858286016200019c565b9150509250929050565b600181811c90821680620002cb57607f821691505b60208210811415620002ed57634e487b7160e01b600052602260045260246000fd5b50919050565b634e487b7160e01b600052604160045260246000fd5b6125b180620003196000396000f3fe60806040526004361061019c5760003560e01c806370a08231116100ec578063b8f366151161008a578063d4f0196311610064578063d4f019631461047b578063e197f211146104b6578063e985e9c5146104e3578063f2fde38b1461052c57600080fd5b8063b8f366151461041b578063c87b56dd1461042e578063d44b45091461044e57600080fd5b80638da5cb5b116100c65780638da5cb5b146103a857806395d89b41146103c6578063a22cb465146103db578063b88d4fde146103fb57600080fd5b806370a082311461036b578063715018a61461038b578063853828b6146103a057600080fd5b806323b872dd116101595780634f6ccce7116101335780634f6ccce7146102f15780635c975abb146103115780636352211e1461032b5780636a4251ba1461034b57600080fd5b806323b872dd146102915780632f745c59146102b157806342842e0e146102d157600080fd5b806301ffc9a7146101a157806302329a29146101d657806306fdde03146101f8578063081812fc1461021a578063095ea7b31461025257806318160ddd14610272575b600080fd5b3480156101ad57600080fd5b506101c16101bc366004612025565b61054c565b60405190151581526020015b60405180910390f35b3480156101e257600080fd5b506101f66101f136600461200b565b610577565b005b34801561020457600080fd5b5061020d6105bd565b6040516101cd91906122c5565b34801561022657600080fd5b5061023a610235366004612103565b61064f565b6040516001600160a01b0390911681526020016101cd565b34801561025e57600080fd5b506101f661026d366004611fe2565b6106e4565b34801561027e57600080fd5b506008545b6040519081526020016101cd565b34801561029d57600080fd5b506101f66102ac366004611f18565b6107fa565b3480156102bd57600080fd5b506102836102cc366004611fe2565b61082b565b3480156102dd57600080fd5b506101f66102ec366004611f18565b6108c1565b3480156102fd57600080fd5b5061028361030c366004612103565b6108dc565b34801561031d57600080fd5b50600c546101c19060ff1681565b34801561033757600080fd5b5061023a610346366004612103565b61097d565b34801561035757600080fd5b5061020d610366366004611ee6565b6109f4565b34801561037757600080fd5b50610283610386366004611ec5565b610a32565b34801561039757600080fd5b506101f6610ab9565b6101f6610aef565b3480156103b457600080fd5b50600a546001600160a01b031661023a565b3480156103d257600080fd5b5061020d610b3d565b3480156103e757600080fd5b506101f66103f6366004611fb9565b610b4c565b34801561040757600080fd5b506101f6610416366004611f53565b610b5b565b6101f6610429366004611ee6565b610b93565b34801561043a57600080fd5b5061020d610449366004612103565b610de8565b34801561045a57600080fd5b506101f6610469366004612133565b60009182526010602052604090912055565b34801561048757600080fd5b506101c161049636600461205d565b8051602081830181018051600e8252928201919093012091525460ff1681565b3480156104c257600080fd5b506102836104d1366004612103565b60009081526010602052604090205490565b3480156104ef57600080fd5b506101c16104fe366004611ee6565b6001600160a01b03918216600090815260056020908152604080832093909416825291909152205460ff1690565b34801561053857600080fd5b506101f6610547366004611ec5565b6111f4565b60006001600160e01b0319821663780e9d6360e01b148061057157506105718261128f565b92915050565b600a546001600160a01b031633146105aa5760405162461bcd60e51b81526004016105a19061232a565b60405180910390fd5b600c805460ff1916911515919091179055565b6060600080546105cc906124a3565b80601f01602080910402602001604051908101604052809291908181526020018280546105f8906124a3565b80156106455780601f1061061a57610100808354040283529160200191610645565b820191906000526020600020905b81548152906001019060200180831161062857829003601f168201915b5050505050905090565b6000818152600260205260408120546001600160a01b03166106c85760405162461bcd60e51b815260206004820152602c60248201527f4552433732313a20617070726f76656420717565727920666f72206e6f6e657860448201526b34b9ba32b73a103a37b5b2b760a11b60648201526084016105a1565b506000908152600460205260409020546001600160a01b031690565b60006106ef8261097d565b9050806001600160a01b0316836001600160a01b0316141561075d5760405162461bcd60e51b815260206004820152602160248201527f4552433732313a20617070726f76616c20746f2063757272656e74206f776e656044820152603960f91b60648201526084016105a1565b336001600160a01b0382161480610779575061077981336104fe565b6107eb5760405162461bcd60e51b815260206004820152603860248201527f4552433732313a20617070726f76652063616c6c6572206973206e6f74206f7760448201527f6e6572206e6f7220617070726f76656420666f7220616c6c000000000000000060648201526084016105a1565b6107f583836112df565b505050565b610804338261134d565b6108205760405162461bcd60e51b81526004016105a19061235f565b6107f5838383611444565b600061083683610a32565b82106108985760405162461bcd60e51b815260206004820152602b60248201527f455243373231456e756d657261626c653a206f776e657220696e646578206f7560448201526a74206f6620626f756e647360a81b60648201526084016105a1565b506001600160a01b03919091166000908152600660209081526040808320938352929052205490565b6107f583838360405180602001604052806000815250610b5b565b60006108e760085490565b821061094a5760405162461bcd60e51b815260206004820152602c60248201527f455243373231456e756d657261626c653a20676c6f62616c20696e646578206f60448201526b7574206f6620626f756e647360a01b60648201526084016105a1565b6008828154811061096b57634e487b7160e01b600052603260045260246000fd5b90600052602060002001549050919050565b6000818152600260205260408120546001600160a01b0316806105715760405162461bcd60e51b815260206004820152602960248201527f4552433732313a206f776e657220717565727920666f72206e6f6e657869737460448201526832b73a103a37b5b2b760b91b60648201526084016105a1565b604080516bffffffffffffffffffffffff19606094851b811660208301529290931b9091166034830152805160288184030181526048909201905290565b60006001600160a01b038216610a9d5760405162461bcd60e51b815260206004820152602a60248201527f4552433732313a2062616c616e636520717565727920666f7220746865207a65604482015269726f206164647265737360b01b60648201526084016105a1565b506001600160a01b031660009081526003602052604090205490565b600a546001600160a01b03163314610ae35760405162461bcd60e51b81526004016105a19061232a565b610aed60006115ef565b565b600a546001600160a01b03163314610b195760405162461bcd60e51b81526004016105a19061232a565b60405133904780156108fc02916000818181858888f19350505050610aed57600080fd5b6060600180546105cc906124a3565b610b57338383611641565b5050565b610b65338361134d565b610b815760405162461bcd60e51b81526004016105a19061235f565b610b8d84848484611710565b50505050565b6002600b541415610be65760405162461bcd60e51b815260206004820152601f60248201527f5265656e7472616e637947756172643a207265656e7472616e742063616c6c0060448201526064016105a1565b6002600b55600c5460ff1615610c2c5760405162461bcd60e51b815260206004820152600b60248201526a14d85b19481c185d5cd95960aa1b60448201526064016105a1565b806001600160a01b0316826001600160a01b03161415610ca35760405162461bcd60e51b815260206004820152602c60248201527f576861742061726520796f7520646f696e6720636f6d706172696e672074686560448201526b2073616d6520746f6b656e3f60a01b60648201526084016105a1565b6000610caf83836109f4565b9050600e81604051610cc19190612180565b9081526040519081900360200190205460ff16151560011415610d575760405162461bcd60e51b815260206004820152604260248201527f5468697320746f6b656e207061697220616c7265616479206578697374732e2060448201527f436f6e73696465722074726164696e6720666f72206974206f6e204f70656e53606482015261656160f01b608482015260a4016105a1565b6001600e82604051610d699190612180565b908152604051908190036020019020805491151560ff199092169190911790556000610d9460085490565b6040805180820182526001600160a01b03808816825286166020808301919091526000848152600f90915291909120919250610dd291906002611dce565b50610ddd3382611743565b50506001600b555050565b6000818152600f60209081526040808320805482518185028101850190935280835260609493830182828015610e4757602002820191906000526020600020905b81546001600160a01b03168152600190910190602001808311610e29575b50505050509050600081600081518110610e7157634e487b7160e01b600052603260045260246000fd5b60200260200101516001600160a01b03166395d89b416040518163ffffffff1660e01b815260040160006040518083038186803b158015610eb157600080fd5b505afa158015610ec5573d6000803e3d6000fd5b505050506040513d6000823e601f3d908101601f19168201604052610eed9190810190612090565b9050600082600181518110610f1257634e487b7160e01b600052603260045260246000fd5b60200260200101516001600160a01b03166395d89b416040518163ffffffff1660e01b815260040160006040518083038186803b158015610f5257600080fd5b505afa158015610f66573d6000803e3d6000fd5b505050506040513d6000823e601f3d908101601f19168201604052610f8e9190810190612090565b905060008282604051602001610fa592919061219c565b60408051601f19818403018152918152600088815260106020529081205491925090610fd2906030612441565b905060008167ffffffffffffffff811115610ffd57634e487b7160e01b600052604160045260246000fd5b604051908082528060200260200182016040528015611026578160200160208202803683370190505b50905060005b828110156111a5576000611041826001612409565b61104d90610e10612441565b90506000730f1f5a87f99f0918e6c81f16e59f3518698221ff6001600160a01b0316637c6619498a60008151811061109557634e487b7160e01b600052603260045260246000fd5b6020026020010151670de0b6b3a76400008c6001815181106110c757634e487b7160e01b600052603260045260246000fd5b60209081029190910101516040516001600160e01b031960e086901b1681526001600160a01b03938416600482015260248101929092529190911660448201526064810185905260840160206040518083038186803b15801561112957600080fd5b505afa15801561113d573d6000803e3d6000fd5b505050506040513d601f19601f82011682018060405250810190611161919061211b565b90508084848151811061118457634e487b7160e01b600052603260045260246000fd5b6020026020010181815250505050808061119d906124de565b91505061102c565b506040805160208101909152600080825250600084826040516020016111cc9291906121ee565b60405160208183030381529060405290506111e68161175d565b9a9950505050505050505050565b600a546001600160a01b0316331461121e5760405162461bcd60e51b81526004016105a19061232a565b6001600160a01b0381166112835760405162461bcd60e51b815260206004820152602660248201527f4f776e61626c653a206e6577206f776e657220697320746865207a65726f206160448201526564647265737360d01b60648201526084016105a1565b61128c816115ef565b50565b60006001600160e01b031982166380ac58cd60e01b14806112c057506001600160e01b03198216635b5e139f60e01b145b8061057157506301ffc9a760e01b6001600160e01b0319831614610571565b600081815260046020526040902080546001600160a01b0319166001600160a01b03841690811790915581906113148261097d565b6001600160a01b03167f8c5be1e5ebec7d5bd14f71427d1e84f3dd0314c0f7b2291e5b200ac8c7c3b92560405160405180910390a45050565b6000818152600260205260408120546001600160a01b03166113c65760405162461bcd60e51b815260206004820152602c60248201527f4552433732313a206f70657261746f7220717565727920666f72206e6f6e657860448201526b34b9ba32b73a103a37b5b2b760a11b60648201526084016105a1565b60006113d18361097d565b9050806001600160a01b0316846001600160a01b0316148061140c5750836001600160a01b03166114018461064f565b6001600160a01b0316145b8061143c57506001600160a01b0380821660009081526005602090815260408083209388168352929052205460ff165b949350505050565b826001600160a01b03166114578261097d565b6001600160a01b0316146114bf5760405162461bcd60e51b815260206004820152602960248201527f4552433732313a207472616e73666572206f6620746f6b656e2074686174206960448201526839903737ba1037bbb760b91b60648201526084016105a1565b6001600160a01b0382166115215760405162461bcd60e51b8152602060048201526024808201527f4552433732313a207472616e7366657220746f20746865207a65726f206164646044820152637265737360e01b60648201526084016105a1565b61152c8383836118d1565b6115376000826112df565b6001600160a01b0383166000908152600360205260408120805460019290611560908490612460565b90915550506001600160a01b038216600090815260036020526040812080546001929061158e908490612409565b909155505060008181526002602052604080822080546001600160a01b0319166001600160a01b0386811691821790925591518493918716917fddf252ad1be2c89b69c2b068fc378daa952ba7f163c4a11628f55a4df523b3ef91a4505050565b600a80546001600160a01b038381166001600160a01b0319831681179093556040519116919082907f8be0079c531659141344cd1fd0a4f28419497f9722a3daafe3b4186f6b6457e090600090a35050565b816001600160a01b0316836001600160a01b031614156116a35760405162461bcd60e51b815260206004820152601960248201527f4552433732313a20617070726f766520746f2063616c6c65720000000000000060448201526064016105a1565b6001600160a01b03838116600081815260056020908152604080832094871680845294825291829020805460ff191686151590811790915591519182527f17307eab39ab6107e8899845ad3d59bd9653f200f220920489ca2b5937696c31910160405180910390a3505050565b61171b848484611444565b61172784848484611989565b610b8d5760405162461bcd60e51b81526004016105a1906122d8565b610b57828260405180602001604052806000815250611a93565b606081516000141561177d57505060408051602081019091526000815290565b600060405180606001604052806040815260200161253c60409139905060006003845160026117ac9190612409565b6117b69190612421565b6117c1906004612441565b905060006117d0826020612409565b67ffffffffffffffff8111156117f657634e487b7160e01b600052604160045260246000fd5b6040519080825280601f01601f191660200182016040528015611820576020820181803683370190505b509050818152600183018586518101602084015b8183101561188c576003830192508251603f8160121c168501518253600182019150603f81600c1c168501518253600182019150603f8160061c168501518253600182019150603f8116850151825350600101611834565b6003895106600181146118a657600281146118b7576118c3565b613d3d60f01b6001198301526118c3565b603d60f81b6000198301525b509398975050505050505050565b6001600160a01b03831661192c5761192781600880546000838152600960205260408120829055600182018355919091527ff3f7a9fe364faab93b216da50a3214154f22a0a2b415b23a84c8169e8b636ee30155565b61194f565b816001600160a01b0316836001600160a01b03161461194f5761194f8382611ac6565b6001600160a01b038216611966576107f581611b63565b826001600160a01b0316826001600160a01b0316146107f5576107f58282611c3c565b60006001600160a01b0384163b15611a8b57604051630a85bd0160e11b81526001600160a01b0385169063150b7a02906119cd903390899088908890600401612288565b602060405180830381600087803b1580156119e757600080fd5b505af1925050508015611a17575060408051601f3d908101601f19168201909252611a1491810190612041565b60015b611a71573d808015611a45576040519150601f19603f3d011682016040523d82523d6000602084013e611a4a565b606091505b508051611a695760405162461bcd60e51b81526004016105a1906122d8565b805181602001fd5b6001600160e01b031916630a85bd0160e11b14905061143c565b50600161143c565b611a9d8383611c80565b611aaa6000848484611989565b6107f55760405162461bcd60e51b81526004016105a1906122d8565b60006001611ad384610a32565b611add9190612460565b600083815260076020526040902054909150808214611b30576001600160a01b03841660009081526006602090815260408083208584528252808320548484528184208190558352600790915290208190555b5060009182526007602090815260408084208490556001600160a01b039094168352600681528383209183525290812055565b600854600090611b7590600190612460565b60008381526009602052604081205460088054939450909284908110611bab57634e487b7160e01b600052603260045260246000fd5b906000526020600020015490508060088381548110611bda57634e487b7160e01b600052603260045260246000fd5b6000918252602080832090910192909255828152600990915260408082208490558582528120556008805480611c2057634e487b7160e01b600052603160045260246000fd5b6001900381819060005260206000200160009055905550505050565b6000611c4783610a32565b6001600160a01b039093166000908152600660209081526040808320868452825280832085905593825260079052919091209190915550565b6001600160a01b038216611cd65760405162461bcd60e51b815260206004820181905260248201527f4552433732313a206d696e7420746f20746865207a65726f206164647265737360448201526064016105a1565b6000818152600260205260409020546001600160a01b031615611d3b5760405162461bcd60e51b815260206004820152601c60248201527f4552433732313a20746f6b656e20616c7265616479206d696e7465640000000060448201526064016105a1565b611d47600083836118d1565b6001600160a01b0382166000908152600360205260408120805460019290611d70908490612409565b909155505060008181526002602052604080822080546001600160a01b0319166001600160a01b03861690811790915590518392907fddf252ad1be2c89b69c2b068fc378daa952ba7f163c4a11628f55a4df523b3ef908290a45050565b828054828255906000526020600020908101928215611e23579160200282015b82811115611e2357825182546001600160a01b0319166001600160a01b03909116178255602090920191600190910190611dee565b50611e2f929150611e33565b5090565b5b80821115611e2f5760008155600101611e34565b80356001600160a01b0381168114611e5f57600080fd5b919050565b80358015158114611e5f57600080fd5b600082601f830112611e84578081fd5b8135611e97611e92826123e1565b6123b0565b818152846020838601011115611eab578283fd5b816020850160208301379081016020019190915292915050565b600060208284031215611ed6578081fd5b611edf82611e48565b9392505050565b60008060408385031215611ef8578081fd5b611f0183611e48565b9150611f0f60208401611e48565b90509250929050565b600080600060608486031215611f2c578081fd5b611f3584611e48565b9250611f4360208501611e48565b9150604084013590509250925092565b60008060008060808587031215611f68578081fd5b611f7185611e48565b9350611f7f60208601611e48565b925060408501359150606085013567ffffffffffffffff811115611fa1578182fd5b611fad87828801611e74565b91505092959194509250565b60008060408385031215611fcb578182fd5b611fd483611e48565b9150611f0f60208401611e64565b60008060408385031215611ff4578182fd5b611ffd83611e48565b946020939093013593505050565b60006020828403121561201c578081fd5b611edf82611e64565b600060208284031215612036578081fd5b8135611edf81612525565b600060208284031215612052578081fd5b8151611edf81612525565b60006020828403121561206e578081fd5b813567ffffffffffffffff811115612084578182fd5b61143c84828501611e74565b6000602082840312156120a1578081fd5b815167ffffffffffffffff8111156120b7578182fd5b8201601f810184136120c7578182fd5b80516120d5611e92826123e1565b8181528560208385010111156120e9578384fd5b6120fa826020830160208601612477565b95945050505050565b600060208284031215612114578081fd5b5035919050565b60006020828403121561212c578081fd5b5051919050565b60008060408385031215612145578182fd5b50508035926020909101359150565b6000815180845261216c816020860160208601612477565b601f01601f19169290920160200192915050565b60008251612192818460208701612477565b9190910192915050565b6000601160f91b80835284516121b9816001860160208901612477565b602f60f81b60019185019182015284516121da816002840160208901612477565b016002810191909152600301949350505050565b613d9160f11b81526b3232b9b1b934b83a34b7b71160a11b60028201527401d1011272331b430b92a111610113730b6b2911d1605d1b600e820152825160009061223f816023850160208801612477565b6e16101134b6b0b3b2afb230ba30911d60891b602391840191820152835161226e816032840160208801612477565b607d60f81b60329290910191820152603301949350505050565b6001600160a01b03858116825284166020820152604081018390526080606082018190526000906122bb90830184612154565b9695505050505050565b602081526000611edf6020830184612154565b60208082526032908201527f4552433732313a207472616e7366657220746f206e6f6e20455243373231526560408201527131b2b4bb32b91034b6b83632b6b2b73a32b960711b606082015260800190565b6020808252818101527f4f776e61626c653a2063616c6c6572206973206e6f7420746865206f776e6572604082015260600190565b60208082526031908201527f4552433732313a207472616e736665722063616c6c6572206973206e6f74206f6040820152701ddb995c881b9bdc88185c1c1c9bdd9959607a1b606082015260800190565b604051601f8201601f1916810167ffffffffffffffff811182821017156123d9576123d961250f565b604052919050565b600067ffffffffffffffff8211156123fb576123fb61250f565b50601f01601f191660200190565b6000821982111561241c5761241c6124f9565b500190565b60008261243c57634e487b7160e01b81526012600452602481fd5b500490565b600081600019048311821515161561245b5761245b6124f9565b500290565b600082821015612472576124726124f9565b500390565b60005b8381101561249257818101518382015260200161247a565b83811115610b8d5750506000910152565b600181811c908216806124b757607f821691505b602082108114156124d857634e487b7160e01b600052602260045260246000fd5b50919050565b60006000198214156124f2576124f26124f9565b5060010190565b634e487b7160e01b600052601160045260246000fd5b634e487b7160e01b600052604160045260246000fd5b6001600160e01b03198116811461128c57600080fdfe4142434445464748494a4b4c4d4e4f505152535455565758595a6162636465666768696a6b6c6d6e6f707172737475767778797a303132333435363738392b2fa2646970667358221220072cbb6234c0127a0ae6aaa88557842069a9152aec1cce5c8411cc2418f468ff64736f6c63430008040033",
  "linkReferences": {},
  "deployedLinkReferences": {}
}